:100000000C94102A0C94412A0C94412A0C94412AF5
:100010000C94412A0C94412A0C94412A0C94412AB4
:100020000C94412A0C94412A0C94412A0C94412AA4
:100030000C94412A0C9492580C94412A0C94412A15
:100040000C94E8590C94412A0C94412A0C94412AAE
:100050000C9452590C94412A0C94412A0C944858FF
:100060000C94412A0C941C590C94F2580C94412A7B
:100070000C94412A0C94412A0C94412A0C94E8597E
:100080000C94412A0C94412A0C94412A0C94525904
:100090000C94412A0C94412A0C94412A0C94895ABC
:1000A0000C94412A0C94E8590C94412A0C94412A4E
:1000B0000C94412A0C9452590C94E8590C94412AFE
:1000C0000C94412A0C94412A0C9452590C94412AC4
:1000D0000C94412A0C94412A0C94412A0C94412AF4
:1000E0000C94412A000000001C00010000051E1CA9
:1000F0000BE41300100E1C06E42F0013201C04E375
:100100007B0012211C05E3C600141D1C04E50F0131
:1001100012191C05E94801070E1C0BE455010722C2
:100120001C0EE5730107221C08E5910112101C0545
:10013000E5B50114161C04E9EC01090E1C06FAFCD5
:100140000116021C03F3020207061C0BFC08021234
:10015000231C05E25702121E1C05E49B02101D1C05
:1001600006E4D502121D1C05E41703131E1C05E44A
:100170005F03101C1C06E59703131D1C05E5DC033B
:10018000121E1C06E42004121C1C05E55F04121E4E
:100190001C05E4A304121E1C06E4E70407151C0B4F
:1001A000EDFA040A1B1C07ED1C0516161C03E95981
:1001B0000518091C02EF740515161C04E9AE05119B
:1001C0001C1C06E6EA0512201C05E432061C1A1C5B
:1001D00000E78D06161A1C03E7D506161C1C03E65D
:1001E0002207161A1C03E76A07161A1C03E7B20750
:1001F000161A1C03E7FA07171C1C03E64B08171A0C
:100200001C03E79608101A1C06E7CA08171B1C04F3
:10021000E71809181A1C03E76609151A1C04E7AB4E
:10022000091A1A1C01E7000A181A1C02E74E0A18DC
:100230001C1C02E6A20A151A1C03E7E70A18201C78
:1002400002E6470B181A1C03E7950B141C1C04E666
:10025000DB0B161A1C03E7230C171B1C03E7710C9E
:100260001C1A1C00E7CC0C1A1A1C01E7210D181AE5
:100270001C02E76F0D181A1C02E7BD0D121A1C05AF
:10028000E7F80D07221C0DE5160E12231C05E2658A
:100290000E07221C08E5830E120C1C05E49E0E1CA2
:1002A000021C0005A50E08071C07E3AC0E16161C61
:1002B00003ECE90E171D1C02E53D0F15161C04EC9E
:1002C000770F181D1C03E5CE0F15161C03EC081044
:1002D000131C1C06E54B10171E1C03ECA210171C68
:1002E0001C03E5F310121D1C05E435110E261C0637
:1002F000E47811161C1C04E5C511121C1C05E5044C
:10030000121C151C00EC4E1217151C02EC8B121659
:10031000161C03ECC812171E1C02EC1F13181E1C1F
:1003200003EC791315141C05EDAE1312161C05EC25
:10033000E013151B1C03E7271417151C03ED6414A9
:100340001A141C01EDA5141A141C01EDE61418145E
:100350001C02ED2215181D1C02ED791511141C0646
:10036000EDA4150B221C08E5D31502221C0DE5DCBB
:10037000150B221C09E50B1614061C04F1739CE7EF
:1003800039CE739CE71084210800000003BFFFB83A
:10039000FE7F7C3E7C3E7C3E7C3E7C3E7C3E7C3ECA
:1003A0003C3E381C381C381C381C381C0186003078
:1003B000C0061800C3001860030C0061800C7001B7
:1003C0008C0061800C303FFFF7FFFE061800C30071
:1003D0001860030C0061800C307FFFEFFFFC0618F3
:1003E00000C70038C0061800C3001860030C006185
:1003F000800C3001860030C000C00030000C000FBF
:10040000C00FFD8703E38039C00660019800060035
:1004100001C000380007C0007F8003F8000F800093
:1004200060001C00038000F0003C001F800EFC0FE9
:1004300037FF807F80030000C00030000C00030005
:1004400000C000078001FE0038700303006018063A
:100450000180601806018030300387001FE030788B
:100460001F001F800FC007E003F000F8000C01E040
:10047000007F800E1C00C0C01806018060180601B5
:1004800080600C0E00E1C007F8001E0003EC01FFC5
:1004900000E10070001800060001800030000C0030
:1004A00001800060007C003B83D860FE0C33039821
:1004B000C066300D8C03C30070601C1C0F03877C6A
:1004C0007F9F078000FEF9F3E7CF9F3E3C70E1C3BA
:1004D0008700061C30E1870E1870E1C30E1C3870CF
:1004E000E1C3870E0C1C387060E1C18383060604EB
:1004F000C1C18383070E0C1C3870E0E1C3870E1C5A
:100500003870E1870E1C3061C30E1870C10000C046
:100510000030000C00030000C010303F8C7CFFFC5A
:1005200007F80078001F000CC00618038700C0C041
:100530006018006000060000600006000060000611
:100540000000600006000060000600FFFFFFFFFFE4
:100550000060000600006000060000600006000069
:100560006000060000600006001F8F87C7C3E1E13E
:10057000F0F078383C1C0E06007FFFFDFFFFF07D99
:10058000FFFFFFEF800000C00070001800060003AE
:100590000000C000600018000C0003000180006033
:1005A0000030000C000600018000C0003000180080
:1005B0000600038000C000700018000E0003000158
:1005C000C000600038000C000700018000600030AF
:1005D000000C000003F003FF01E1E0E01830031C11
:1005E00000E600198006E001F0003C000F0003C0A7
:1005F00000F0003C000F0003C000F0003C000F00C2
:1006000003C000F800760019800670038C00C380D8
:100610006078780FFC00FC00038007800F801D804D
:1006200039807180E180C18001800180018001807A
:1006300001800180018001800180018001800180B2
:100640000180018001800180018001800180FFFF25
:10065000FFFF03F003FF01C0E0C01C6003B8006CA3
:10066000000F00030000C000300018000600030067
:10067000018000C0006000300018000C000600037C
:1006800000018000C00060003000D00038000FFF83
:10069000FFFFFFC003F801FFC0703C1801C600183F
:1006A000000180003000060000C0001800060001B4
:1006B000C0007001FC003F0000780003800038009B
:1006C0000300003000060000C0001800030000D83E
:1006D000003B800E3E0781FFE007E000003C007C0D
:1006E000006C00CC008C018C030C030C060C040C79
:1006F0000C0C080C100C300C200C600C400C800C06
:10070000FFFFFFFF000C000C000C000C000C000CA5
:1007100000FF00FF3FFF07FFE0C0001800030000DC
:1007200060000C000180003000060000C7E01FFFE1
:1007300003807000030000300006000060000C0021
:100740000180003000060000C000300006C001DC5F
:100750000071F03C0FFF003F00003F803FF03E0083
:100760001E000E000700038000C000700018000685
:1007700000038000C1F831FF0CF0F3700CD801BC0D
:10078000006E000F8003C000D80036000D800330DB
:10079000018E0061C030383807FC007C00FFFFFF8D
:1007A000FFFC000F0003C001C000600018000E0035
:1007B000030000C000300018000600018000C000E7
:1007C00030000C000600018000600030000C0003C7
:1007D00000018000600018000C00030003F003FF1C
:1007E00003C0F1C00E6001B8007C000F0003C00020
:1007F000F000360018C00C1C0E03FF00FFC070385C
:100800003003180066001B0003C000F0003C000F1E
:10081000000360019800E3007070380FFC00FC00DA
:1008200007E003FE01C1C0C03860071800CC001B00
:100830000006C001B0003C001F00076003D801B3F0
:1008400000CCF0F30FF8C1F830001C000600018066
:1008500000E00030001C000E000700078007C0FF0A
:10086000C01FC0007DFFFFFFEF8000000000000000
:10087000003EFFFFFFF7C00F87F1FC7F1FC3E000C2
:100880000000000000000007F1F87C3F0F83E0F05B
:100890007C1E0781C0F03804000000180001E00051
:1008A0001E0000E0000F0000F0000F0000F0000745
:1008B000000078000780000F00001E00001E0000EE
:1008C0001E00001E00001E00003C00003C00003C1A
:1008D0000000380000207FFFFF7FFFFF00000000C6
:1008E00000000000000000000000007FFFFF7FFF0D
:1008F000FFC0000780000F00001E0000380000F05D
:100900000001E00003C0000780000E00003C000171
:10091000E0003C00078000F0001E0001E0003C0009
:10092000078000F0000E000060000007F01FFE3E90
:10093000079800EC0036000F00060003000180015C
:10094000C000C001C003C007C00700030001800051
:10095000C00000000000000000000000078007E069
:1009600003F001F800780003F003FF01E0E0E01C71
:1009700030031C006600198006C001B007EC07FBBD
:1009800003C6C1C1B0E06C301B0C06C301B0C06C23
:10099000181B0786C0FFF00FFC0003000060001862
:1009A00000070000C00038000780C0FFF00FE0071C
:1009B000FF00007FF000001B000001980000118084
:1009C00000030C000030C000060C00006060000650
:1009D000060000C030000C030000803000180180C9
:1009E000018018003FFF8003FFFC002000C00600CC
:1009F00006006000600C000600C000300C0003011F
:100A00008000187FC03FF7FC03FFFFFF03FFFF01DB
:100A1000800E06001C180038600061800186000608
:100A20001800386001C1801E07FFE01FFFC060038F
:100A3000C1800386000618001C6000318000C600DB
:100A40000318000C600061800386001CFFFFE3FFB9
:100A5000FE0000FC000FFE60F03D87003E380038CD
:100A6000C000E7000198000660000300000C0000D1
:100A7000300000C0000300000C0000300000C00087
:100A80000300000C0000180000600001C00003809B
:100A900000C700060E00701E07803FFC001F80FF8D
:100AA000FE03FFFE03003C0C0038300070C000C3A2
:100AB00000038C000630001CC000330000CC000393
:100AC00030000CC000330000CC000330000CC0002C
:100AD0003300018C0006300030C001C3000E0C0052
:100AE000F0FFFF83FFF800FFFFFBFFFFE1800186BF
:100AF00000061800186000618001860000180C00D4
:100B000060300180C007FF001FFC0060300180C022
:100B10000603001800006000018000C600031800F2
:100B20000C6000318000C60003FFFFFFFFFFF0FFF5
:100B3000FFFFFFFFF18000C6000318000C600031CA
:100B40008000C60000180C0060300180C007FF0064
:100B50001FFC0060300180C0060300180000600028
:100B600001800006000018000060000180000600FF
:100B700000FFF003FFC00000FF0007FF981E03F016
:100B80007001E18001C600019C000330000060009C
:100B900001C0000300000600000C00001800003037
:100BA00000006003FFC007FF80001B00003700004B
:100BB000660000CC00018C00031C00061E000C0F18
:100BC00000F80FFFC003FC007F01FCFE03F860008B
:100BD000C0C00181800303000606000C0C00181839
:100BE00000303000606000C0FFFF81FFFF0300069F
:100BF00006000C0C00181800303000606000C0C007
:100C00000181800303000606000C0C0018FF01FFA1
:100C1000FE03FCFFFFFFFF018001800180018001D6
:100C200080018001800180018001800180018001BC
:100C300080018001800180018001800180018001AC
:100C4000800180FFFFFFFF00FFFE01FFFC000300AB
:100C5000000600000C0000180000300000600000DA
:100C6000C0000180000300000600000C0000180016
:100C70000030600060C000C18001830003060006F0
:100C80000C000C1800303800603801803C0E003F2A
:100C9000F8000FC000FF81FEFF81FE180030180031
:100CA000E01801C0180380180700180E001818007B
:100CB00018700018E00019E0001BF8001F1C001C51
:100CC00006001803001803801801801800C01800DF
:100CD000C0180060180060180070180030FF803FD6
:100CE000FF801FFFF007FF800180000C0000600004
:100CF000030000180000C000060000300001800062
:100D00000C00006000030000180000C0000600187E
:100D10003000C180060C0030600183000C180060B8
:100D2000C003FFFFFFFFFFC0FC000FFF0003F360E5
:100D300001B0D8006C3300330CC00CC3380730C688
:100D4000018C31C0E30C3030C30C0C30C1860C3048
:100D500061830C0CC0C3033030C0780C301E030C10
:100D60000300C3000030C0000C3000030C0000C3BF
:100D7000000030C0000CFF003FFFC00FF0FC00FF80
:100D8000FC00FF1E000C1F000C1B000C19800C192E
:100D9000C00C18C00C18600C18600C18300C1838F7
:100DA0000C18180C180C0C180E0C18060C18030C48
:100DB00018030C18018C1801CC1800CC18006C1802
:100DC000007C18003C7F801C7F801C007E0001FF9F
:100DD000C00781E00E00701C003838001C30000C89
:100DE00070000E600006600006C00003C00003C073
:100DF0000003C00003C00003C00003C00003C00024
:100E00000360000660000670000E30000C38001C05
:100E10001C00380E00700781E003FFC0007E00FF59
:100E2000FF07FFFE0600783000E180030C000C6035
:100E300000630003180018C001C6000C3000C18018
:100E40001E0FFFC07FF8030000180000C00006005E
:100E50000030000180000C00006000030000FFF083
:100E600007FF8000007E0001FF800781E00E007018
:100E70001C003838001C30000C70000E600006604A
:100E80000006C00003C00003C00003C00003C00090
:100E900003C00003C00003C000036000066000063A
:100EA00070000E30000C18001C0C00380600700397
:100EB00081E000FFC0007E0000E00003FF8707FF25
:100EC000FE0700F8FFFE00FFFF801803C01800E0D7
:100ED0001800601800301800301800301800301862
:100EE00000701800601801C01807801FFF001FFC69
:100EF00000180E001807001803801801C01800E041
:100F0000180060180030180030180018FF801FFF0C
:100F1000800F03F800FFE61E07E3801E3000E600A6
:100F20000660006600066000070000300001C00097
:100F30000FC0003FC0003F80001C0000E000070021
:100F400000300003C0003C0003E0007E0006F80112
:100F5000EDE07CCFFF003FC0FFFFFFFFFFFC030081
:100F6000F00C03C0300F00C03C0300C00C00003088
:100F70000000C0000300000C0000300000C00003AF
:100F800000000C0000300000C0000300000C000056
:100F9000300000C0000300000C000FFFC03FFF0046
:100FA000FF01FFFE03FCC000618000C3000186005A
:100FB000030C000618000C300018600030C00061FF
:100FC0008000C300018600030C000618000C3000EE
:100FD00018600030C000618000C3800383000607F2
:100FE000001C0700700783C007FF0003F8007FC0E4
:100FF0003FF7FC03FF18000180C000300C00030025
:101000006000300600060060006003000C00300045
:10101000C003800C00180180018018000C03000040
:10102000C030000E0300006060000606000030C003
:1010300000030C00003080000198000019800000BF
:10104000F000000F000000E000FF807FFFE01FF3D2
:10105000000030C0000C3000030C0380C301E030FE
:1010600060780C181F020604C08183306060CC18C1
:10107000183186061861818618607187180C40C681
:1010800003303100CC0CC03301B00D806C03601B09
:1010900000D806C03400F007003C01C00E007F00FD
:1010A000FF7F00FF1800180C00380E00700700606A
:1010B0000300C001818001C38000E70000760000CA
:1010C0003C00001800003C00007E0000660000C3E9
:1010D000000181800381C00700E00600600C003041
:1010E00018001838001CFF00FFFF00FFFF00FFFF83
:1010F00000FF1800180C00300E007006006003009E
:10110000C00381C001818000C30000E700006600C9
:10111000003C00003C00001800001800001800000F
:10112000180000180000180000180000180000182F
:101130000000180007FFE007FFE07FFF9FFFE600C9
:1011400019800C600718038600C180700038000CFD
:10115000000700038000C000600038001C0006008B
:10116000038031C00C60033000DC003E000F000340
:10117000FFFFFFFFF0FFFF060C183060C183060C75
:10118000183060C183060C183060C183060C18301B
:1011900060FFFCC0003000060001800030000C0041
:1011A00001800060000C00030000600018000300D4
:1011B00000C0001800060000C000300006000180DA
:1011C0000030000C0003800060001C00030000E001
:1011D000001800070000C000300006000180003049
:1011E000000CFFFC183060C183060C183060C1830E
:1011F000060C183060C183060C183060C183FFFCF8
:1012000000400030001E000EC00738018700C0C03B
:10121000601838031C00E6001F0003FFFFFFFFFFFC
:10122000FFFFC0E0703C0E070301FC007FFC01C023
:101230003C00003000006000018000060000180043
:1012400000600FF981FFFE0F803870006380018C11
:101250000006300018C000E300078600761E079FD6
:101260003FF87C3F8000F80001F00000600000C003
:10127000000180000300000600000C1F8018FFC062
:101280003381C06E01C0F000C1E001C3800187005E
:10129000038C000318000630000C600018C00031F9
:1012A00080006380018700030F000E1F00383700A5
:1012B000E3E70387C7FE0003F00001FC003FF9836A
:1012C000C0FC3801E300073800198000DC0006C0CC
:1012D0000006000030000180000C00006000038068
:1012E000000C00007000018000C7001E1E03C07FBC
:1012F000FC00FF000000F80000F8000018000018D3
:1013000000001800001800001801F81807FE180F58
:1013100007981C01D83800F8700078600038E000A9
:1013200038C00018C00018C00018C00018C000184D
:10133000C000186000386000387000783800D81C91
:1013400001D80F079F07FE1F01F80001FC003FF8BE
:101350000780F07001C30007300019800078000397
:10136000C0001FFFFFFFFFFF80000C0000600001B6
:1013700080000C0000300001C000C7000E1E03E01A
:101380003FFC007F00007FC03FFC0E000380006038
:10139000000C000180003000FFFF9FFFF0180003E9
:1013A000000060000C000180003000060000C0005A
:1013B000180003000060000C0001800030000600EF
:1013C00000C003FFFC7FFF8001F8000FFC7C381C8D
:1013D000F8E00D83000F0E001E18001C700038C0CE
:1013E00000318000630000C600018C000318000675
:1013F00018001C3000383000F0700360781CC03FCB
:10140000F1801F8300000600000C0000180000306F
:101410000000C0000380000E003FF8007FC000F80D
:101420000001F00000600000C00001800003000027
:101430000600000C3F0018FF803703807C0380F01B
:101440000381C00303000606000C0C0018180030CE
:101450003000606000C0C001818003030006060008
:101460000C0C0018180030300063FC07FFF80FF078
:1014700001C00070001C00070001C0000000000057
:10148000000000000FF003FC00030000C00030006B
:101490000C00030000C00030000C00030000C0007E
:1014A00030000C00030000C00030000C03FFFFFF01
:1014B000FFC0007001C007001C00700000000000A9
:1014C0000003FFFFFFC003000C003000C003000C4E
:1014D000003000C003000C003000C003000C0030DE
:1014E00000C003000C003000C003000C007003803B
:1014F0001CFFE3FF00F80003E0000180000600008D
:101500001800006000018000060000181FE0607FE6
:1015100081806006070018380061C0018E000670E7
:10152000001B80007F0001CE00061C001838006000
:10153000700180E00601C018038060070F807FFE05
:1015400001FF3FC00FF0000C00030000C00030009E
:101550000C00030000C00030000C00030000C000BD
:1015600030000C00030000C00030000C000300003D
:10157000C00030000C00030000C000300FFFFFFF70
:10158000FF00F03C0F9F87E0FB1CC701E0D8381C30
:101590000701818060181806018180601818060113
:1015A000818060181806018180601818060181800A
:1015B0006018180601818060181806018180601883
:1015C0001806018FE07C1FFE07C1F0001F00F8FF26
:1015D00081F383806C0380F00381C003030006065F
:1015E000000C0C00181800303000606000C0C00112
:1015F00081800303000606000C0C00181800303030
:101600000067FC03FFF807E000FC001FFE00F03C51
:10161000070038380071C000E60001980006C000DD
:101620000F00003C0000F00003C0000F0000360077
:1016300001980006700038E001C1C00E03C0F00739
:10164000FF8003F000003F01F1FF83E70380D80132
:1016500081E00183C0038700030E000718000630F5
:10166000000C600018C000318000630000C7000358
:101670000E00061E00183600706703C0C7FE018307
:10168000F00300000600000C00001800003000000D
:10169000600000C0000FFC001FF8000001F8000708
:1016A000FF1F0F079F1C01D838007870007860007A
:1016B00038E00038C00018C00018C00018C000187A
:1016C000C00018C000186000387000783000781C26
:1016D00001D80F079807FF1801FC18000018000038
:1016E000180000180000180000180000180000186A
:1016F0000003FF0003FF7E03C3F07F818F0E0CE029
:10170000007E0003C0001C0000C000060000300086
:101710000180000C00006000030000180000C00001
:1017200006000030003FFFC1FFFE0007F007FF6327
:10173000C0F9C00E60019800660019C000380007AB
:10174000C0007FC0007C0003800070000F0003C059
:1017500000F8007F003BF03CDFFE00FE000C0000C4
:101760006000030000180000C000060003FFFE1F19
:10177000FFF00C00006000030000180000C000062D
:10178000000030000180000C000060000300001821
:101790000000C000060000300000C0070701F01F75
:1017A000FF003F80F803F1F007E06000C0C0018156
:1017B000800303000606000C0C00181800303000EF
:1017C000606000C0C00181800303000606000C0CAD
:1017D00000381800F0180360383CF83FF1F01F00A3
:1017E000007FC0FFDFF03FF0C000C03000300600D7
:1017F0001C018006003001800C00C00380300060B6
:10180000180018060003030000C0C00018300006CE
:10181000180000C600003300000EC00001E0000008
:1018200078007F003FDFC00FF180002060001818B3
:1018300000060603018081E0603078100C1E0C0366
:101840000CC300C330C010CC30066198019866000C
:101850006619800B036003C0D000F01C003807003D
:101860000E01C03F81FE3F81FE0C00380600700370
:1018700000E00181C000C380006700003C00001848
:1018800000003C0000670000C3800181C00300E04D
:101890000600700C003818001C7F81FF7F81FF7FDD
:1018A00000FF7F00FF18000C1800180C00180C0037
:1018B000300600300600600300600300C00180C0F5
:1018C00001818000C18000C3000063000066000049
:1018D0003600003400003C0000180000180000181A
:1018E0000000300000300000600000600000C00018
:1018F0007FFC007FFC00FFFF7FFFB0019801CC015F
:10190000C000C000C000C000C000C000E000600017
:1019100060006000600060037001B000FFFFFFFF27
:10192000F000E07C0C0300600C0180300600C01861
:101930000300600C0300E0F01E00700600600C0164
:1019400080300600C0180300600C01801803E01C02
:10195000FFFFFFFFFFFFFFFFF0E01F00600600C07A
:10196000180300600C0180300600C01801803801A7
:10197000E03C1C0300C0180300600C01803006002E
:10198000C0180300C0F81C000F0003FC0370E076D1
:10199000078EC01FC000F07F7F7F7F7F2388138862
:1019A00013881388138813881388138813887F7FFC
:1019B0007F7F7F7F7F338813881388138813881372
:1019C00088138813881388447F7088299023942073
:1019D000971C9A1A9C189E16A0148E078B138C0BBA
:1019E0008A118B0F88118A11880F8A13880E891427
:1019F000880D8916870D8917870C8818870C881819
:101A0000870B8919870A881A870A881A870A881A09
:101A1000870A881A870A881A870A881A8809881AFA
:101A20008809881A8809881A88098918890A8818EB
:101A3000890A8818890A89168A0A89168A0B8914DC
:101A40008B0B8A128C0C8A108D0C8C0C8F0D8E07D0
:101A5000910E9D00880F9B018810990288119703B1
:101A6000881295048813920687168E088719880AAB
:101A7000882D882D882D882D872D88108417880C17
:101A80008817880C8915880D8915880E8814890E89
:101A90008913880F89128910891089118A0E8A1179
:101AA0008B0B8B138C078C159F169E189C1A9A1DF6
:101AB000971F9423902889507F7089289122951E22
:101AC000991B9B199D179F15A1138D078C138B0BC9
:101AD0008B118A0F8A10891189108813880F891336
:101AE000890E8815880E8815880E8815880E881529
:101AF000880E8815880E8815880E8815880F88131B
:101B000088108813881089118911890F8913890D0C
:101B100089158B078C169D199B1C97209320961D69
:101B20009A1A9D179F158C078C138A0C8B118A0F9C
:101B30008A0F8A11890F8913890D8915880D8915D6
:101B4000890C8817880C8817880B8819880A8819C7
:101B5000880A8819880A8819880A8819880A8819B9
:101B6000880A8819880A8819880A8819880A8917AA
:101B7000890B8817880C8915890C8915890D89139B
:101B8000890E8A118A0F8A0F8A108C0C8B118D078F
:101B90008D13A1159F179D199B1B991E95229128A6
:101BA000894E7F7F17AB0AAB0AAB0AAB0AAB0AAB15
:101BB0000AAB0AAB0AAA2E862E862E872D872D8782
:101BC0002D872E872D872D872E872D872D882D8772
:101BD0002D872D882D872D882D872D882C882D8861
:101BE0002C882D882C882D882C882D882D882C8851
:101BF0002D882C882D882D882C882D882D882C8840
:101C00002D882D882C882D882D882D882C882D882E
:101C10002D882D882C882D882D882D882D882D881D
:101C20002C892C882D882D882D882D887F0C7F72FB
:101C300089289023951E981C9A1A9C189E16A01409
:101C40008D068D128B0B8B128A0E8A108911890FCB
:101C50008A12890E8913890E8815880D8915890CB9
:101C60008816890B8917880B8818840F882D872D73
:101C7000882D882D882D880A881987088E16870652
:101C80009213880496118803981088029A0F88018D
:101C90009C0E88009E0D92078E0C900C8C0B8E1063
:101CA0008A0B8D128A0A8C14890A8B1689098A1765
:101CB0008909891988098919880989198908881B56
:101CC0008808881B8808881B8808881B8809871B48
:101CD0008809871B8809871B8809871B8809881A38
:101CE000880A8719890A8719880B8818880B88172A
:101CF000890C8816880D8815890E8814890E89121A
:101D0000891089108A108B0C8B128C078D14A115E9
:101D10009F179D199B1C971F95238F29894D7F7FA6
:101D20001EA015A014A114A114A114A114A113A202
:101D300013A213882D882D882C892C882D882D8816
:101D40002D882C892C882D882D882D882C89068813
:101D50001C89038E198802921788009615A113A377
:101D600012A411A5108F078E0F8C0D8C0D8B118A6C
:101D70000D8A138A0C891589108417892C892D885E
:101D80002D882D892D882D882D882D882D882D88AA
:101D90002D882D882D880D841A88098819880A892C
:101DA00018880A8918880B8817890B8916880C8966
:101DB00015890D8913890E8A118A0E8B0F8A108B53
:101DC0000D8A128D078D12A214A0169E199B1B98C6
:101DD0001F952290288A4E7F7F34862E872D882C4F
:101DE000892C892B8A2A8B298C288D288D278E2651
:101DF0008F259025902491239222932293218A006B
:101E000088208A01881F8A02881E8B02881E8A0306
:101E1000881D8A04881C8A05881B8A06881B8A06F6
:101E2000881A8A0788198A0888188A0988188A09E6
:101E300088178A0A88168A0B88158A0C88158A0CD6
:101E400088148A0D88138A0E88128A0F88118B0FC6
:101E500088118A1088108A11880F8A12880E8A13B6
:101E6000880EAF06AF06AF06AF06AF06AF06AF06E9
:101E7000AF06AF25882D882D882D882D882D882D9B
:101E8000882D882D882D882D882D882D882D882DAA
:101E9000882D887B7F6F89299023941F971D9A1A1C
:101EA0009C189E16A0158C068C148B0A8B128A0E19
:101EB000891289108911881288108912890F881453
:101EC000880F8814880E8914880E88158812841546
:101ED000882D882D882C882D882C892B892B892A60
:101EE0008B288C2391248F268D288F259223942153
:101EF000952081078C2B8B2C8A2C892D892D892C60
:101F0000892D882D892D882D882D882D882D882D27
:101F1000880D841A8809881A8809891889098918F6
:101F2000880B8818880B8916890B8915890D8914E7
:101F3000890D8A12890F8A108A0F8B0D8B118D07DC
:101F40008D13A214A0169D199B1B991E95229128F2
:101F5000894E7F6F8A279221961D9A1A9C189E1689
:101F6000A014A2128E078D118B0C8C0F8A108A0F71
:101F700089128A0D8914890D8914890D8816890C96
:101F80008816890B8818880B8818880B8818880F82
:101F90008418882D882D882D882C892C882C892CB4
:101FA000892B892C892B892B8A2A8A2A8B298B2990
:101FB0008B298B298B298C288C288C288C288C2782
:101FC0008C288C288C288C288C278D278D278C2872
:101FD0008C288C298B298B298A2A8A2B892B8A2B5E
:101FE000892B892CAA0AAB0AAB0AAB09AC09AC094C
:101FF000AC09AC09AC747F78852F862F862E872D8F
:10200000882D882C892B8A2A8B298C278E268F2530
:10201000902491229320951E8D00881D8C02881D8E
:102020008B03881D8A04881D8806881D8707881DE4
:102030008509881D830B881D810D882D882D882D8D
:10204000882D882D882D882D882D882D882D882DE8
:10205000882D882D882D882D882D882D882D882DD8
:10206000882D882D882D882D882D882D882D882DC8
:10207000882D882D882D882D882D882D882D882DB8
:10208000882D882D882D882D882D882D882D882DA8
:10209000882D887F017F708A289023941F981C9A2E
:1020A0001A9C189E16A0158C068C148B0A8B128A0B
:1020B0000E891289108911881288108912890F8857
:1020C00014880E8914880E8816880D8816880D8845
:1020D00016880C8818880B8818880B8818880B8835
:1020E00018880B8818880B8818880A881A88098825
:1020F0001A8809881A8809881A8809881A88098814
:102100001A8809881A8809881A8809881A88098803
:102110001A8809881A8809881A8809881A880988F3
:102120001A8809881A8809881A8809881A880988E3
:102130001A8809881A8809881A880A8818880B88D2
:1021400018880B8818880B8818880B8818880B88C3
:1021500018880C8816880D8816880D8816880D89B1
:1021600014890E8814880F891289108812881189A1
:102170001089118A0E8A128B0A8B148C068C15A07A
:10218000169E189C1A9A1C981F942390288A4D7F9B
:102190007F7F7F7F7F7F7F7F7F7F7F7F7F488813E9
:1021A0008813881388138813881388138813884426
:1021B0007F7F7F7F7F7F7F7F36910A910A910A918F
:1021C0000A910A910A917F7F7F7F7F7F7F077F7FC0
:1021D0007F7F7F7F7F7F7F7F7F7F7F7F7F7F7E7F10
:1021E0001F8207840684068407827F18820784067C
:1021F00084068407827F20278E0F900D920D900118
:10220000800881018E01820683108404850E850476
:10221000850E8504850E8504850E8504850E85044E
:10222000850E8504850E8504850E8504850E85043E
:10223000850E8504850E8504850E8504850E85042E
:102240008410840482028E0282048002920280063C
:102250009609940C9002811B83198519851985199B
:10226000851985198519851985198519851985197E
:1022700085198519851A830B8E01810B900D920D9E
:10228000900F8E28278E0F900D920D90018008815F
:10229000018E01820683108404850E8504850E85D7
:1022A00004850E8504850E8504850E8504850E85BE
:1022B00004850E8504850E8504850E8504850E85AE
:1022C00004850E8504850E8504850E85048410849E
:1022D0000482028E028204800292028006960680A8
:1022E00001940782019002810484118304850E8584
:1022F00004850E8504850E8504850E8504850E856E
:1023000004850E8504850E8504850E8504850E855D
:1023100004850E8504850E8504850E8504850E854D
:1023200004850E85058310830781018E01810B9042
:102330000D920D900F8E28278E0F900D920D90010B
:10234000800C8E01821B84198519851985198519C0
:10235000851985198519851985198519851985198D
:10236000851A841C821E805D811B8319851985193D
:10237000851985198519851985198519851985196D
:10238000851985198519851A831C817F24278E0F4D
:10239000900D920D900B81018E0B831A8519851972
:1023A000851985198519851985198519851985193D
:1023B000851985198519841A82028E0A8002920A6B
:1023C000960680019407820190028104841183049F
:1023D000850E8504850E8504850E8504850E85048D
:1023E000850E8504850E8504850E8504850E85047D
:1023F000850E8504850E8504850E8504850E85046D
:10240000850E8504850E85058310830781018E0165
:10241000810B900D920D900F8E28278E0F900D92AC
:102420000D900B81018E0B831A85198519851985ED
:1024300019851985198519851985198519851985AC
:10244000198519841A82028E0A8002920A960994CA
:102450000C9002811B8319851985198519851985A9
:10246000198519851985198519851985198519857C
:1024700019851A830B8E01810B900D920D900F8E92
:10248000287F1980088112820683108404850E85B6
:1024900004850E8504850E8504850E8504850E85CC
:1024A00004850E8504850E8504850E8504850E85BC
:1024B00004850E8504850E8504850E8504850E85AC
:1024C000048410840482028E0282048002920280BC
:1024D000069609940C9002811B831985198519852C
:1024E00019851985198519851985198519851985FC
:1024F0001985198519851A831C817F24278E0F90D1
:102500000D920D9001800C8E01821B841985198516
:1025100019851985198519851985198519851985CB
:102520001985198519851A840A8E028208920280FB
:10253000069609940C9002811B83198519851985CB
:10254000198519851985198519851985198519859B
:102550001985198519851A830B8E01810B900D92AF
:102560000D900F8E28278E0F900D920D9001800CEC
:102570008E01821B8419851985198519851985197C
:102580008519851985198519851985198519851A5A
:10259000840A8E02820892028006960680019407C1
:1025A00082019009841A851985198519851985195B
:1025B000851985198519851985198519851985192B
:1025C000851A831C81018E0F900D920D900F8E281D
:1025D0007F19801D821B8419851985198519851914
:1025E00085198519851985198519851985198519FB
:1025F000851B831D811E805D811B831985198519AB
:1026000085198519851985198519851985198519DA
:10261000851985198519851A831C817F24278E0FBA
:10262000900D920D9001800881018E018206831029
:102630008404850E8504850E8504850E8504850E2B
:102640008504850E8504850E8504850E8504850E1A
:102650008504850E8504850E8504850E8504850E0A
:102660008504850E850484108404821482048018F5
:102670008024801E8215810484118304850E8504C4
:10268000850E8504850E8504850E8504850E8504DA
:10269000850E8504850E8504850E8504850E8504CA
:1026A000850E8504850E8504850E8504850E8504BA
:1026B000850E85058310830781018E01810B900DA6
:1026C000920D900F8E287F7F7F7B82078406840681
:1026D000840782107F7F7F7F3F7F7F10860C83027D
:1026E0008B0983018D0883008F078805860686097C
:1026F0008406850B8405840D8305840D8305840D74
:102700008404830F8304830F8304830F8304830F64
:102710008304830F8304830F8304830F8304830F55
:102720008304830E8404840D8305840C8405850B47
:102730008405860984068805860683008F07830141
:102740008D0883028B098304860C831883188318F1
:1027500083188318831883188318831883327F7F24
:102760007F058607860A830289048A0883008C0213
:102770008C0783008D008E068705890584068508F1
:1027800086088405840A840A8305840A840A8305EA
:10279000830B830B8305830B830B8305830B830BD5
:1027A0008305830B830B8305830B830B8305830BCB
:1027B000830B8305830B830B8305830B830B8305BB
:1027C000830B830B8305830B830B8305830B830BA5
:1027D0008305830B830B8305830B830B8305830B9B
:1027E000830B8305830B830B8305830B830B83058B
:1027F000830B830B8305830B830B8305830B830B75
:10280000837F7F7F7A7F7B880F8D0A900991078570
:10281000068506840A8405830C8305830C8305835F
:102820000C83168315840E8B09900792068D018305
:102830000588078305840B8304840C8304830D833C
:1028400004830D8304830C8404830B85048409862C
:102850000584068A038F0184048D0284058A05831A
:1028600007867F7F357F1A84098409840984098457
:102870007F3D8409840984098409847F7422880F38
:102880008C0C8F0991078605860585098405840BC4
:102890008404830D8303840D8303830F8302830FDA
:1028A0008302830F8302830F8302830F8302840DCD
:1028B0008403830D8403840B8504840986048605C0
:1028C000880594068E0083078B02830A860483168C
:1028D000831583168303830E8303830D8403840C83
:1028E0008305830B84058409850685058608900A7F
:1028F0008E0C8B11867F7F332485118B0C8F099171
:10290000078605860684098405840B8404840B8469
:1029100004830D8304830D8304830D8304840B845B
:1029200005830B830684098407850585098F0B8D34
:102930000B8F09910785078505840B8404830D831C
:1029400003840D8402830F8302830F8302830F832A
:1029500002830F8302830F8302840D8402840D841B
:1029600003840B840486078605930791098F0D89DC
:102970007F7F31379603960396039616831583154A
:102980008315831584148414841583158414841585
:102990008414841583158415831584158415831573
:1029A0008415831683158415831683168316831561
:1029B000841583168316837F7F532486118B0C8E98
:1029C0000A90088605850685098405840B8305839E
:1029D0000C8403840D8303830E8303831683158382
:1029E000168304860A83028B0783008E069405886B
:1029F00005860486098404850B8403840D8303847F
:102A00000D8402830F8302830F8302830F8302836B
:102A10000F8302830F8303830D8403830D83048458
:102A20000B8405840985058605860791098F0C8C22
:102A30000F887F7F313A910891089108910882169A
:102A40008316831683168217821782168302870BDA
:102A500083008B09910892078605860684098505FF
:102A6000830B8416831684168316831683168316A7
:102A70008303830E8303830D8403830D8304840BFC
:102A80008405840985058605860791098F0B8D0FBE
:102A9000877F7F32458315841485138613861287BA
:102AA0001183008311830083108301830F830283CA
:102AB0000E8402830E8303830D8304830C830583BA
:102AC0000B8405830B8306830A83078309840783AA
:102AD000098308830883098307830A83079702977A
:102AE0000297029711831683168316831683168323
:102AF0001683168316837F7F4A23870F8D0B9008DA
:102B000091078605860684098405840B8404840B5A
:102B10008404830D8304830D8304830D831584153E
:102B200084148414850D8B0E89108B0E8C148615DD
:102B3000841684158402830F8302830F8302830F1C
:102B40008302840D8402840C8503840B840485092C
:102B500085058605860791098F0B8D0F877F7F4D31
:102B60002487108C0B8F09910885058606840984BB
:102B700006840A8306830B8404840C8304830D83F8
:102B800004830D8304830D831683158415841484B4
:102B90001485138512861187108810880F88108776
:102BA0001186128513851484148415831683159653
:102BB0000396039603967F7F452982178216831614
:102BC000831584148512870D8C0D8C0D8700830D61
:102BD000840383168316831683168316831683163F
:102BE000831683168316831683168316831683161D
:102BF000831683168316831683168316831683160D
:102C00008316837F7F4C23870F8D0B8F0991078657
:102C100005860684098406830B8305840B8404835C
:102C20000D8304830D8304830D8303830F83028349
:102C30000F8302830F8302830F8302830F83028338
:102C40000F8302830F8302830F8302830F83028328
:102C50000F8302830F8302830F8302830F83028318
:102C60000F8303830D8304830D8304830D83048406
:102C70000B8405830B8306840984068605860791E9
:102C8000098F0B8D0F877F7F327F7F7F558409846B
:102C90000984098409847F387F7F458A058A058AEB
:102CA000058A7F7F7F2B7F7F7F7F3F19118309817B
:102CB00001810781038203800080068101810080F9
:102CC00007837F7F2C01830A820A810A810A810A95
:102CD000810A810A810A810A810A810B810B82089B
:102CE0008109810A810A810A810A810A810A810A8D
:102CF000810A81098207831304810A810A810A817A
:102D00000A810A810A810A810A810A810A810A816B
:102D10000A810A810A810A810A810A810A810A815B
:102D20000A810A810A810A810A81120683078209BF
:102D3000810A810A810A810A810A810A810A810A3B
:102D400081098108820B810B810A810A810A810A2B
:102D5000810A810A810A810A810A820A830E4889CE
:102D60000189088207820782078208810882078218
:102D70000782078208890189544D820682008106F4
:102D80008101810681028104810381048103810420
:102D90008104810281058102810581028106810011
:102DA00081078100810781008108820982098209E7
:102DB00081098206840783144E8106810182048280
:102DC00002810481048102810582008206840882D6
:102DD00008840682008205810281048104810282C6
:102DE0000482018106815B6B81048204810081047D
:102DF00082048100810480008004810181028100BD
:102E000081028102810281008102810281028100AE
:102E1000810281028102800280028103810081029D
:102E2000810081048100810281008104810081028E
:102E30008100810582048206820482068204827FE8
:102E4000014781068100810681018104810281049C
:102E50008102810481038102810481028104810253
:102E600081058100810681008106840782088258DD
:102E700055810681028106810281068102810681D7
:102E8000028106810281068102810681028106811A
:102E9000028106810281058202820383038600810A
:102EA00004840181620F8104810481048102850010
:102EB00085028104810481048104810481048104E8
:102EC00081048104830382314A840587028203815D
:102ED0000281058101810A840786078409810181B5
:102EE00005810182038202870485563181008201B7
:102EF00085018204810581058105810581058105A2
:102F0000810581058105813B5E8301810486008105
:102F10000383018403810582028206810281078185
:102F20000281078102810781028206810381058275
:102F30000383018404860081068301810C810C8156
:102F40000C810C810C811F5B81018306810086044A
:102F50008401830382058103810682028107810245
:102F60008107810281078102810682028205810335
:102F7000840183038100860481018306810C810C16
:102F8000810C810C81285E8407880483028303817D
:102F90000681028206820181088101810881018106
:102FA00008810182068202810681038302830488EC
:102FB00007846D5B8101840581008604830382039D
:102FC00082058103810681038106810381068103D5
:102FD00081068103810681038106810381068103C5
:102FE000810681038106816A7F0581018303830550
:102FF00081008500860483028402820382048204A5
:103000008103810581058103810581058103810596
:103010008105810381058105810381058105810386
:103020008105810581038105810581038105810574
:10303000810381058105817F1B0781038103810352
:103040008103810381038103810381038103810360
:10305000810381038103810381038103812B198112
:103060000981098109810981048201810382028128
:103070000282038101820481008205850586048223
:103080000181048102820381038103810382028121
:10309000048102810482530781038103810F81032C
:1030A0008103810381038103810381038103810300
:1030B00081038103810381038103810381038101F2
:1030C000830182080781038103810F8103810381CA
:1030D00003810381038103810381038103810381D0
:1030E000038103812B10810C810C810C810C810CDC
:1030F00081018405810086048303820382058103A4
:103100008106810381068103810681038106810393
:103110008106810381068103810681038106810383
:103120008106816A5E8301810486008103830184B4
:103130000381058202810781028107810281078163
:103140000281078102820681038105820383018453
:1031500004860081068301810C810281078102813E
:1031600006820382038204890685130A830284028D
:10317000810581058103860086028105810581051F
:103180008105810581058105810581058105813BD9
:1031900058830787048301830381058102820681A6
:1031A000018B018B01810B820B81058202830183DC
:1031B000048707836619810C810C810C810C8106C0
:1031C00083018104860081038301840381058202D7
:1031D00082068102810781028107810281078102C3
:1031E00082068103810582038301840486008106AF
:1031F0008301816A528306870383018203810581EB
:10320000018209810A810A810A8205810281058180
:1032100002830182048706835E10810C810C810C7D
:10322000810C810C81018306810086048401830363
:103230008205810381068202810781028107810262
:103240008107810281068202820581038401830352
:10325000810086048101836D57850588048104827D
:10326000038105810B810587038902820581028123
:103270000681028106810282038303860083028421
:103280000282610B83038501820182008103810038
:1032900081038100820182018503837F1A7F7F1D64
:1032A0008C261082078100810581028103810481BF
:1032B000018106817F6F098403840681068106816E
:1032C00006810681068106810681068106810681C6
:1032D00006810681068106810681068106810681B6
:1032E000038403841401800B800B810B800B800B03
:1032F000810B800B800B810B800B800B810B800B73
:10330000800B810B800B800B810B800B800B810B62
:10331000800B800B810B800E0B840384038106815C
:103320000681068106810681068106810681068165
:103330000681068106810681068106810681068155
:1033400006810684038412118C028C0C820B820B82
:10335000820C810C810C820B820B820C810C810C03
:10336000820B820B820B820C8D018D700F82098281
:103370000082078202810781038205820481058120
:103380000681038107820182088101810A830B8300
:103390000C810D810D810D810D810D810D810D81BE
:1033A000760F8108810182068202810681048104F0
:1033B0008105820282068102810881008109840AD6
:1033C000820B820A810081088200820781028106C5
:1033D00081048104820482038106810282068200C4
:1033E0008208826816820682068200810682068131
:1033F00001810682068101820481008104820281AA
:10340000048100810481038104810081048103819E
:10341000048100810481038202810281028204818D
:10342000028102810281058102810281028105817E
:10343000028102810281058200810481008206816D
:10344000008104810081078100810481008107815E
:103450000081048100810783068308820682098235
:1034600006827F250E820882008108810181088101
:103470000181088102810681038106810381068121
:103480000481048105810481058104810681028112
:103490000781028107810281088100810981008101
:1034A00009840A820B826E138109810381098103D9
:1034B00081098103810981038109810381098103D4
:1034C00081098103810981038109810381098103C4
:1034D00081098103810981038109810381098103B4
:1034E00082078204820582068908877F020D9B0578
:1034F000810B810B810B810B810B810B810B810B6C
:10350000810B810B810B810B810B810B810B8167FF
:10351000148507890482058203810781038107815D
:103520000381078202820D840B860B850C830D823A
:10353000018208810281088102810881028305825B
:10354000038A068673128B048C0381088202810928
:103550008102810981028109810281098102810838
:1035600081038C038B048107820381088103810816
:103570008202810981028109810281098102810916
:103580008102810981771886098A0683048304826F
:10359000088203810A8102820A8201810C810181F1
:1035A0000C8101810C8101810C8101810C810181DF
:1035B0000C810182068002820281058201810382E0
:1035C000058504830483068C0786018210807311AD
:1035D0008A048B03810782028108810281088102AB
:1035E0008108810281088102810782028B038A049B
:1035F000810D810D810D810D810D810D810D817BED
:103600001886098A068304830482088203810A815A
:1036100002820A8201810C8101810C8101810C816D
:1036200001810C8101810C8101810C8101820A825E
:1036300002810A810382088204830483068A098640
:103640007F0A138208810382088103830781038430
:103650000681038100810681038100820581038147
:10366000018204810381028104810381028203813A
:103670000381038202810381048102810381048228
:10368000018103810582008103810681008103811C
:1036900006840381078303810882038108827F16E1
:1036A000820A8203830883038308830383088303D6
:1036B00081008106810081038100810681008103F0
:1036C00081008106810081038101810481018103E0
:1036D00081018104810181038101810481018103D0
:1036E00081028102810281038102810281028103C0
:1036F00081028102810281038103810081038103B0
:103700008103810081038103810384038103810498
:103710008204810381048204817F140E810A810A5C
:10372000810A810A810A810A810A810A810A810A41
:10373000810A810A810A810A810A810A8A018A5AD8
:103740001281088202810782038106820481058238
:103750000581048206810382078102820881018239
:103760000981008309870883018207820382068119
:103770000581068105820581068204810782038115
:103780000882028109827615810A810A810A810AEA
:10379000810A810A810A810A810A810A810A8101DA
:1037A00081068101810681018106810182048202F4
:1037B0008804865E0781038103810381038103817D
:1037C00003810381038103810381038103810381D9
:1037D00003810381038103812B1381098103810903
:1037E00081038109810381098103810981038109A1
:1037F0008103810981038D038D038109810381097F
:103800008103810981038109810381098103810980
:10381000810381098103810981038109817F1886E0
:10382000098A068205830482088104810982028252
:103830000F811081108105870281058702810B812C
:1038400002810B8102820A8103810982038207833C
:103850000483048405890081078503807F06108B1B
:10386000028B02810C810C810C810C810C810C8AF1
:10387000038A03810C810C810C810C810C810C81E9
:103880000C8173118C028C02810D810D810D810DD3
:10389000810D810D8B038B03810D810D810D810DB8
:1038A000810D810D8C028C701389078B0581068335
:1038B00004810882038109810381098202810A81CE
:1038C00002810A8102810A8102810A8102810A81C0
:1038D00002810A81028109820281098103810882B1
:1038E00003810683048B05897F031786088A058375
:1038F00004830382088103810A8101820A81018194
:103900000F810F810F810F810F810B8101820A814D
:10391000028109820282088104830483058A088661
:103920007F02128A058C038107820381088103814B
:103930000881038108810381088103810782038A4A
:10394000058C03810782038109810281098102813B
:1039500009810281098102810782038C038A7A1519
:10396000830B830B830A8101810981018109810114
:103970008108810381078103810781038106810515
:1039800081058105810589048B03810781038107F6
:10399000810281098101810981008209826F218868
:1039A0000D82068209820A8107810D8105810F81BE
:1039B00004800683018003810281048102830381E4
:1039C00002810381048104810181048104810481D5
:1039D00001810381058104810181038105810481C5
:1039E00001810381048104810281038104810481B6
:1039F00002810381048103810481038102820281A7
:103A00000581048301840781178117810B81098255
:103A100005830D876C10850488038203820182056B
:103A2000810181068101810681098208820882085C
:103A3000820981098209822382098209825F628266
:103A40000C820C830C820D81088207830782088216
:103A50007F155186018613860186636B8208820773
:103A600083078208810D820D820C820C827F0C2BD1
:103A700082038203823482038203820580048104EC
:103A8000800481172B8203820382348203820382A3
:103A9000321F850588048203820282058102810724
:103AA00081018107810181078101820582028203F0
:103AB00083028A048401810B8101810681028106CF
:103AC0008103810482038805866520830787058139
:103AD00003810481058103810581038105810481BE
:103AE00003810685068704820382028107810181A2
:103AF0000781018107810181078102820382038995
:103B00000585651C8B018B0A810A8209820A810A5C
:103B1000820A810A810B810A820A810B810B810A48
:103B2000810B810B816920840688038204810381D3
:103B300006810281068101810B810184048A02834E
:103B4000038202820582018107810181078101814F
:103B50000781028105820282038204880585651D32
:103B600089038903810B810B810B81008405890204
:103B7000830382028106820B810B810B8101810705
:103B80008101820582028203820389058565248181
:103B90000A820983098308810081078101810681E6
:103BA00002810681028105810381048104810381F0
:103BB0000581038B018B09810B810B810B81641FB4
:103BC0008506870482038203810581028205810BB9
:103BD000810A82078408850B820B8101810781019C
:103BE000810781018205820282038203890585653E
:103BF0001F85058903820382028206810181078174
:103C0000018107810B810A82088307840684078368
:103C1000088209820A810B8B018B6222810B810A47
:103C200082078507850B810B810B810B810B810B33
:103C3000810B810B810B810B810B810B81662083B2
:103C40000787048301830381058102820582018144
:103C5000078101810781018107810181078101813C
:103C6000078101810781018107810182058202812B
:103C700005810383018304870783660D8105810520
:103C80008005810581058005810581058005810507
:103C900081058005810581058005810581058005F7
:103CA0008105812D718203820382325885018568E6
:103CB000718203820382058004810480048117538A
:103CC0008107810781048701870481078107816754
:103CD00010810981098106800181018002890385A3
:103CE00006830681018104820182048003807F367D
:103CF000078106800681068006810581058106818F
:103D00000581058105810581058105810581058183
:103D10000581048105810581058005810580058176
:103D20000D0D8105800581058005810581058104D2
:103D30008105810581058105810581058105810553
:103D40008105810681058105810680068106800640
:103D50008107068202820282048003810281741537
:103D6000840A860882028207810481078104810710
:103D7000810382088101820A840A830B85038103FF
:103D80008201820281028203820181028105840311
:103D900081068303810781048204850388018203ED
:103DA000850482762D820781058605800681028141
:103DB00004810581048102810681048102800781DA
:103DC00004810181088102810280098601800C82C0
:103DD000028102820C8001860980028102810881B1
:103DE00001810481078002810481068102810481AE
:103DF000058104810281068005860581078207808E
:103E00007F0C1F850589038203820281078101815E
:103E1000078101810B820B810A8707810B810B814E
:103E20000B810A810B860280018B01810483632E42
:103E30008101810C8002800D8002800C8101810C47
:103E40008002800D800280088D088002800D800233
:103E5000800D800280088D088002800D8002800C19
:103E60008101810C8002800D8002800C8101817FA4
:103E70000D0980018003800180038001800380019F
:103E8000800380018003800180038001807F110A0C
:103E900081058105810581058105810581058105F2
:103EA0008105810581058105811581058105813A9D
:103EB0007F01000030484830000000000000000092
:103EC0000000000000324C00000000000000000074
:103ED0000000004020202020202010202020202032
:103EE0002040000040404040404040404040404072
:103EF00040000010202020202020402020202020D2
:103F00002010000000000000FC0408304080FC008D
:103F1000000000000000000084848484844C340489
:103F20000870000000000000888850205088880039
:103F300000000000000000008282829292AA4400E9
:103F400000000000000000008282828244281000ED
:103F5000000000000000000084848484844C34004D
:103F60000000000000004040E04040404040300081
:103F70000000000000000000708880700888700059
:103F80000000000000000000B0C880808080800039
:103F90000000000000000000344C8484844C340491
:103FA0000406000000000000B0C8848484C8B0800B
:103FB0008080000000000000384482828244380083
:103FC0000000000000000000B0C8848484848400E5
:103FD0000000000000000000ACD292929292920089
:103FE0000000000000C040404040404040404000D1
:103FF00000000000008080808890A0C0A090880011
:104000000000000000001000301010101010101000
:1040100090600000000040004040404040404000B0
:104020000000000000808080B0C884848484840004
:104030000000000000000000304C8484844C3404F4
:1040400008700000003048404040E04040404000E0
:104050000000000000000000384484F8804438006C
:104060000000000000000404344C8484844C3400BC
:1040700000000000000000003844808080443800C8
:104080000000000000008080B0C8848484C8B000B4
:104090000000000000000000700804748C8C7400A4
:1040A0000000000000404040200000000000000030
:1040B0000000000000000000000000000000000000
:1040C000FF000000000000000000000000000000F1
:1040D0000000001028440000000000000000000064
:1040E00000000000000000000000000000000000D0
:1040F00000000000E020202020202020202020E0C0
:1041000000000000040408081010202040408080B7
:1041100000000000E080808080808080808080E0DF
:104120000000000000FE0204081010204080FE0085
:10413000000000000082828244281010101010003D
:10414000000000000082824428101028448282006F
:104150000000000000000000808080808080888057
:104160008880490055005500220022000000000010
:10417000000000000082828282444428281010003F
:1041800000000000008282828282828282443800A3
:104190000000000000FE1010101010101010100091
:1041A000000000000038448280601C028244380015
:1041B0000000000000F884828284F89088848200E5
:1041C00000000000003844828282828282443808E3
:1041D0000600000000F88482828284F880808000DB
:1041E00000000000003844828282828282443800CB
:1041F0000000000000C2C2A2A292928A8A868600B3
:104200000000000000000000C180C180A280A280E8
:104210009480948088808880808080800000000066
:104220000000000000808080808080808080FC0012
:104230000000000000848890A0C0A09088848200C4
:104240000000000000020202020202028244380062
:104250000000000000E04040404040404040E0009E
:10426000000000000084848484FC848484848400AE
:1042700000000000003C428080809C8282423C0022
:104280000000000000FE808080F880808080800038
:104290000000000000FE808080FC80808080FE00A6
:1042A0000000000000F88482828282828284F8000A
:1042B00000000000003C42808080808080423C0002
:1042C0000000000000F8848284F884828284F80070
:1042D00000000000001010282844447C82828200E4
:1042E00000000000003C4299A5A5A5A59E403E0007
:1042F0000000000000384482020408101000100082
:1043000000000000000080402010081020408000C5
:10431000000000000000000000F800F800000000AD
:10432000000000000000081020408040201008001D
:104330000000000000000000C0C000C0C0408000BD
:104340000000000000000000C0C000C0C00000006D
:10435000000000000038448282463A0202047800DD
:10436000000000000038448244384482824438000F
:1043700000000000007E0202040408081010100073
:1043800000000000003C408080B8C48282443800B5
:104390000000000000FC808080F8040202847800A5
:1043A0000000000000040C14244484FE04040400F3
:1043B00000000000007884020438040202847800BF
:1043C0000000000000384482020418204080FE00F3
:1043D00000000000001030501010101010107C0071
:1043E0000000000000384444828282824444380045
:1043F00000000000040408081010202040408080C5
:1044000000000000000000000000000000C0C0002C
:1044100000000000000000000000F80000000000A4
:1044200000000000000000000000000000C0C040CC
:1044300080000000000000002020F8202000000084
:104440000000000000001092543854921000000048
:10445000000000C020100808040404040408081028
:1044600020C0000C10204040808080808040402090
:10447000100C0000404040800000000000000000E0
:104480000000000000205088885020528C8C73005F
:10449000000000000061919264081026498986009E
:1044A00000000000003C4240407040704040FE0070
:1044B0000000000000242424FF2424FF24242400DE
:1044C00000000000A0A0A00000000000000000000C
:1044D000000000000040404040404040400040009C
:1044E00000000000000000000000000000000000CC
:1044F00000001D1D1D1D1D1D1D1D1D1D1D1D1D1D26
:104500001D1D373737373737373737371D1D1D1DD7
:104510001D1D1D1D1D1D1D1D1D1D1D1D1D1D1D1DCB
:104520001D1D1D1D1D1D1D1D1D1D1D1D1D1D1D1DBB
:104530001D1D1D1D1D1D1D1D1D1D1D1D1D1D1D1DAB
:104540001D1D1D1D1D1D1D1D1D1D1D1D1D1D1D1D9B
:104550001D1DCE21CE21CE21CE21CE21CE21CE2198
:10456000CE21CE21CE21CE21CE21CE21B0218F2130
:10457000CE219520F61F521F941ED71D1E1D2E1CE6
:10458000A21BB81AC8199719CE21CE21CE21CE214F
:10459000CE21CE21CE21CE21CE21CE21CE21CE21A3
:1045A000CE21CE21CE21CE21CE21CE21CE21CE2193
:1045B000CE21CE21CE21CE21CE21CE21CE21CE2183
:1045C000CE21CE21CE21CE21CE21CE21CE21CE2173
:1045D000CE21CE21CE21CE21CE21CE21CE21CE2163
:1045E000CE21CE21CE21CE21CE21CE21CE21CE2153
:1045F000CE21CE21CE21CE21CE21CE21CE21CE2143
:10460000CE21CE21CE21CE21CE21CE21CE21CE2132
:10461000CE210C0C0C0C0C0C0C0C0C0C0C0C0C0C03
:104620000C0C202020202020202020200C0C0C0C02
:104630000C0C0C0C0C0C0C0C0C0C0C0C0C0C0C0CBA
:104640000C0C0C0C0C0C0C0C0C0C0C0C0C0C0C0CAA
:104650000C0C0C0C0C0C0C0C0C0C0C0C0C0C0C0C9A
:104660000C0C0C0C0C0C0C0C0C0C0C0C0C0C0C0C8A
:104670000C0CD426D426D426D426D426D426D4264C
:10468000D426D426D426D426D426D426D426C62668
:10469000D4261D26D0256525FC2481241A248D23AB
:1046A00037238422F721DF21D426D426D426D4260A
:1046B000D426D426D426D426D426D426D426D4262A
:1046C000D426D426D426D426D426D426D426D4261A
:1046D000D426D426D426D426D426D426D426D4260A
:1046E000D426D426D426D426D426D426D426D426FA
:1046F000D426D426D426D426D426D426D426D426EA
:10470000D426D426D426D426D426D426D426D426D9
:10471000D426D426D426D426D426D426D426D426C9
:10472000D426D426D426D426D426D426D426D426B9
:10473000D4260C0C0C0C0C0C0C0C0C0C0C0C0C11D2
:104740000F0C1B1B1B1B1B1B1B1B1B1B0F0C0C0C0D
:104750000C0C0C0C0C0C0C0C0C0C0C0C0C0C0C0C99
:104760000C0C0C0C0C0C0C0C0C0C0C0C0C0C0C0C89
:104770000C0C0C1B0C0C0C0C0C0C0C0C0C0C0C2A4C
:104780000C0C1D0C0C0C0C0C0C0C0C0C0C0C070C5D
:104790000C0CA62CA62CA62CA62CA62CA62CA62C43
:1047A000A62CA62CA62CA62CA62CA62C982C892CA4
:1047B000A62C062CB92B602BF92A942A352ABA2963
:1047C0007329F8287D286528A62CA62CA62CA62CB3
:1047D000A62CA62CA62CA62CA62CA62CA62CA62C49
:1047E000A62CA62CA62CA62CA62CA62CA62CA62C39
:1047F000A62CA62CA62CA62CA62CA62CA62CA62C29
:10480000A62CA62CA62CA62CA62CA62CA62CA62C18
:10481000A62CA62C0528A62CA62CA62CA62CA62CAD
:10482000A62CA62CA62CA62CA62CA62C5E27A62C45
:10483000A62CD926A62CA62CA62CA62CA62CA62CBB
:10484000A62CA62CA62CA62CA62CA62CA62CA62CD8
:10485000A62C050808130E15110608080C0A0708EF
:1048600007080E0E0E0E0E0E0E0E0E0E07070E0988
:104870000E0D1910111212100F1312060D110D1535
:104880001213101311100E120F170F1010090D092B
:104890000C0D090E0F0D0F0E080F0F06060C061655
:1048A0000F0F0F0F080C070E0C120D0D0C0D0D0D38
:1048B0000F01B03E8F3E713E2F3E023EA43D5F3D54
:1048C000523D213DF03CD03CBF3CB03CAB3CA43C15
:1048D0007B3C3E3C1B3CF03BBF3B8E3B5F3B263B67
:1048E000033BCA3A913A843A6F3A5B3A523A3E3ABB
:1048F000153A9E395F392239EA38A83883385E384C
:104900001E38D937B437873740371B379F36423682
:104910000036CF35863545351035ED34A73464344F
:10492000E433A1336C3347331833E532B632A23265
:104930009D32833258321932F431B53190316B31B6
:104940002431E530C43097305E303930E82FB32F52
:10495000862F472F082FEB2EC82EA52E702E412E06
:10496000E72DB82D792D5E2D2B2DF82CC52CAC2CD8
:10497000AB2C000020002300260029002C002F0073
:1049800032000001000003010601090100000000DF
:10499000003E5B4F5B3E3E6B4F6B3E1C3E7C3E1CC5
:1049A000183C7E3C181C577D571C1C5E7F5E1C000B
:1049B000183C1800FFE7C3E7FF0018241800FFE7C2
:1049C000DBE7FF30483A060E2629792926407F0585
:1049D0000507407F05253F5A3CE73C5A7F3E1C1C9B
:1049E00008081C1C3E7F14227F22145F5F005F5F5B
:1049F00006097F017F006689956A60606060609447
:104A0000A2FFA29408047E040810207E201008084B
:104A10002A1C08081C2A08081E101010100C1E0C56
:104A20001E0C30383E3830060E3E0E0600000000E8
:104A30000000005F00000007000700147F147F14CF
:104A4000242A7F2A12231308646236495620500014
:104A500008070300001C2241000041221C002A1C00
:104A60007F1C2A08083E08080080703000080808EB
:104A70000808000060600020100804023E5149450B
:104A80003E00427F400072494949462141494D3329
:104A90001814127F1027454545393C4A4949314190
:104AA000211109073649494936464949291E00005E
:104AB00014000000403400000008142241141414B3
:104AC0001414004122140802015909063E415D599F
:104AD0004E7C1211127C7F494949363E41414122A8
:104AE0007F4141413E7F494949417F090909013ED2
:104AF000414151737F0808087F00417F41002040F9
:104B0000413F017F081422417F404040407F021C0A
:104B1000027F7F0408107F3E4141413E7F09090921
:104B2000063E4151215E7F091929462649494932ED
:104B300003017F01033F4040403F1F2040201F3FB3
:104B40004038403F63140814630304780403615938
:104B5000494D43007F41414102040810200041417A
:104B6000417F040201020440404040400003070826
:104B70000020545478407F28444438384444442822
:104B8000384444287F385454541800087E090218C9
:104B9000A4A49C787F0804047800447D4000204051
:104BA000403D007F1028440000417F40007C047895
:104BB00004787C080404783844444438FC182424DD
:104BC0001818242418FC7C0804040848545454245D
:104BD00004043F44243C4040207C1C2040201C3CDA
:104BE0004030403C44281028444C9090907C4464D1
:104BF000544C440008364100000077000000413664
:104C0000080002010204023C2623263C1EA1A161E9
:104C1000123A4040207A385454555921555579411B
:104C20002154547841215554784020545579400CF2
:104C30001E527212395555555939545454593955D3
:104C40005454580000457C410002457D4200014516
:104C50007C40F0292429F0F0282528F07C54554583
:104C6000002054547C547C0A097F49324949493216
:104C70003248484832324A4848303A4141217A3A2B
:104C800042402078009DA0A07D39444444393D40F5
:104C900040403D3C24FF2424487E4943662B2FFCA2
:104CA0002F2BFF0929F620C0887E09032054547950
:104CB000410000447D413048484A32384040227A21
:104CC000007A0A0A727D0D19317D2629292F28269E
:104CD0002929292630484D402038080808080808A6
:104CE0000808382F10C8ACBA2F102834FA00007BFF
:104CF000000008142A142222142A1408AA005500BD
:104D0000AAAA55AA55AA000000FF00101010FF0023
:104D1000141414FF001010FF00FF1010F010F01416
:104D20001414FC001414F700FF0000FF00FF14141B
:104D3000F404FC141417101F10101F101F14141467
:104D40001F00101010F0000000001F101010101FA6
:104D500010101010F010000000FF101010101010B4
:104D6000101010FF10000000FF140000FF00FF00F3
:104D7000001F10170000FC04F4141417101714146B
:104D8000F404F40000FF00F714141414141414F7BE
:104D900000F7141414171410101F101F141414F417
:104DA000141010F010F000001F101F0000001F145E
:104DB000000000FC140000F010F01010FF10FF14B1
:104DC0001414FF141010101F00000000F010FFFF5B
:104DD000FFFFFFF0F0F0F0F0FFFFFF000000000029
:104DE000FFFF0F0F0F0F0F38444438447C2A2A3E30
:104DF000147E02020606027E027E0263554941636A
:104E00003844443C04407E201E2006027E02029963
:104E1000A5E7A5991C2A492A1C4C7201724C304AFC
:104E20004D4D303048784830BC625A463D3E494985
:104E300049007E0101017E2A2A2A2A2A44445F442D
:104E40004440514A444040444A51400000FF01035D
:104E5000E080FF000008086B6B0836123624360627
:104E60000F090F0600001818000000101000304055
:104E7000FF0101001F01011E00191D1712003C3C1B
:104E80003C3C00000000007D03E400207E2F000079
:104E9000004000000000C000000000E00000000032
:104EA000F000000000F000000000F800000001F831
:104EB00000000001FC00000001FE00000001FE00F7
:104EC000000001FF00000001FF00000003FF800060
:104ED0000003E780000003E3C0000003C1E000001E
:104EE00003C060000003C030000007C000000007DE
:104EF000C000000007C0000000078000000007801D
:104F00000000000F800000000F800000000F8000F4
:104F100000000F8000007FCF000001FFFF000003B2
:104F2000FFFF000007FFFF00000FFFFF00000FFF63
:104F3000FF00000FFFFE00000FFFFE000007FFFE56
:104F4000000007FFFC000003FFF8000000FFF00076
:104F500000003F8000000200002100240027002AFA
:104F6000002D003000330001010000040107010A98
:104F70000100002200250028002B002E0031003403
:104F80000002010000050108010B010505050507E8
:104F90000508080808020202020A0A0808040404B4
:104FA00004010101010101010103030303030303E0
:104FB00003040707070C0C0C0C0C0C0C0C0202026F
:104FC0000206060606060606060B0B0B0B0B0B0B62
:104FD0000B01021020200808102040102040800201
:104FE000010201080402010102040810204080802F
:104FF00040201008040201800402018040201008B3
:10500000040201080402010102040810204080018A
:105010000204081020408000000A0B02090C0D0E4B
:105020000807030401000000000000000000000069
:105030000000000000000000000000000000000070
:10504000000000121110000000000000000000002D
:105050000000000000000000000000000000000050
:105060000000000000000000003C000000003C00C8
:105070000000003C000000003C00000003C3C00032
:105080000003C3C0000003C3C0000003C3C000008E
:105090003C003C00003C003C00003C003C00003C6C
:1050A000003C00003C003C00003C003C00003C0098
:1050B0003C00003C003C0003C00003C003C00003F0
:1050C000C003C00003C003C00003C003C00003C08E
:1050D00003C00003C003C00003C003C00003C03C02
:1050E0000000003C3C0000003C3C0000003C3C0058
:1050F00000003C3FFFFFFFFC3FFFFFFFFC3FFFFFC7
:10510000FFFC3FFFFFFFFC00003C000000003C00F4
:105110000000003C000000003C0000000000000017
:1051200000000000000000000000003E007FE000E2
:105130007E007FE000FE007FE001FE007FE003FED6
:10514000007FE007FE007FE007FE007FE007FE0033
:105150007FE007FE007FE007FE007FE007FE007FA4
:10516000E007FE007FE007FE007FE007FE007FE033
:1051700007FE007FE007FE007FE007FE007FE007FC
:10518000FE007FE007FE007FE007FE007FE007FEF5
:10519000007FE007FE007FE007FE007FE007FE00E3
:1051A0007FE007FE007FE007FE007FE007FE007F54
:1051B000E007FE007FE007FE007FE007FE007FE0E3
:1051C00007FE007FE007FE007FE007FE007FE007AC
:1051D000FE007FE007FE007FC007FE007F8007FE25
:1051E000007F0007FE007E0007FE007C000000003C
:1051F0000000008000000000C000000000F000007F
:105200000000F800000000FE00000000FF000000A9
:1052100000FFC0000000FFE0000000FFF8000000F9
:10522000FFFC000000FFFF000000FFFF800000FF08
:10523000FFE00000FFFFF00000FFFFFC0000FFFFA9
:10524000FE0000FFFFFF8000FFFFFFC000FFFFFF29
:10525000F000FFFFFFE000FFFFFFC000FFFFFF00C7
:1052600000FFFFFE0000FFFFF80000FFFFF000005E
:10527000FFFFC00000FFFF800000FFFE000000FFF6
:10528000FC000000FFF0000000FFE0000000FF80D5
:10529000000000FF00000000FC00000000F800001B
:1052A0000000E000000000C000000000000000005E
:1052B00000000000000603040908090903070708A5
:1052C0000603060507080808080808080808080370
:1052D000030606060809080808080808080804085C
:1052E00008070A0808080808080808080A0808083B
:1052F000040704070904070707070706070704054B
:105300000604080708070806060507080806070731
:105310000503050806E244D244C244B244A24492C2
:10532000448244724462445244424432442244120D
:10533000440244F243E243D243C243B243A2439203
:1053400043824372436243524342433243224312F5
:10535000430243F242E242D242C242B242A24292EB
:1053600042824272426242524242423242224202ED
:1053700042F241E241D241C241B241A24192418254
:10538000417241524142413241224112410241F2B5
:1053900040D240B240A240924082407240624052AD
:1053A0004042403240224012400240F23FE23FD2AF
:1053B0003FC23FB23FA23F923F823F723F623F52A5
:1053C0003F423F323F223F123F023FF23EE23ED297
:1053D0003EC23EB23E000000000000000000000897
:1053E000071553B552100D000000000000B24852DE
:1053F000481A130000000000009247324730247220
:10540000461246302F5245F2444B497C3C3E5E2BBF
:105410003D3F2F5B5D3B2C2A225C0000945C806743
:1054200011241FBECFEFD1E2DEBFCDBF00E00CBF25
:1054300013E0A0E0B2E0E6EAF4ED00E00BBF02C04A
:1054400007900D92A43FB107D9F72BE0A4EFB3E08A
:1054500001C01D92A736B207E1F71AE2CFE0DAE207
:1054600000E006C021970109802FFE010E94EC692F
:10547000CE30D10780E00807A9F70E94475F0C945F
:10548000426A0C940000089508951F93CF93DF9310
:10549000182FC091DF08D091E0088A3041F4E881EC
:1054A000F9810190F081E02D6DE0CE011995E88140
:1054B000F9810190F081E02D612FCE01199521E055
:1054C00030E0019711F430E020E0C901DF91CF9185
:1054D0001F910895CF93DF93C091DF08D091E0082A
:1054E000E881F9810084F185E02DCE011995892BA1
:1054F000B9F3E881F9810284F385E02DCE01DF91D3
:10550000CF911994809107029091DD0687FF13C017
:10551000992381F08F7780930702E091DC06F0E019
:10552000EE0FFF1FE950FD4F0190F081E02D8081CB
:105530008162808308959923E9F38068809307024C
:10554000E091DC06F0E0EE0FFF1FE950FD4F019007
:10555000F081E02D80818E7FECCF8091DC0690E0A1
:10556000880F991FFC01E151FD4F0190F081E02D62
:105570002091010B3091020B31832083FC01E95112
:10558000FD4F0190F081E02D22EB208381529D4F51
:10559000DC01ED91FC9189E180830895481759075A
:1055A00028F4F82FE92FCA014F2F5E2F261737074F
:1055B00028F4F62FE72FB9012F2F3E2FA1985F98DF
:1055C000EAE2E8B9A298A29A5F9A98B9A298A29A38
:1055D00088B9A298A29A58B9A298A29A48B9A29852
:1055E000A29A5F988BE288B9A298A29A5F9A78B93A
:1055F000A298A29A68B9A298A29A38B9A298A29A37
:1056000028B9A298A29A5F988CE288B9A298A29A27
:105610005F9A0895A19812B888B9A298A29AA19AFF
:105620000895A1985F9812B888B9A298A29A5F9A33
:10563000A19A08958150823108F05AC0E82FF0E015
:105640008827EA5DF44D8F4F0C94EC69462B4A2B6A
:10565000382B3E2B422B782B4D2B532B572B5D2B6E
:10566000612B652B6B2B6F2B782B732B792B7D2B61
:10567000809180008F7780938000089580918000D2
:105680008F7DF9CF80918000877FF5CF84B58F77AC
:1056900084BD089584B58F7DFBCF8091B0008F7756
:1056A0008093B00008958091B0008F7DF9CF8091F4
:1056B00090008F77809390000895809190008F7D67
:1056C000F9CF80919000877FF5CF8091A0008F77F0
:1056D0008093A00008958091A0008F7DF9CF8091E4
:1056E000A000877FF5CF809120018F7780932001E4
:1056F0000895809120018F7DF9CF80912001877FCF
:10570000F5CF1F93CF93DF93282F30E0F901E95EA7
:10571000FF4A8491F901EF52F04BD491F901E5571A
:10572000F04BC491CC23A1F0162F811183DFEC2F15
:10573000F0E0EE0FFF1FEF58F04BA591B4918FB73B
:10574000F894EC91111108C0D095DE23DC938FBF43
:10575000DF91CF911F910895DE2BF8CFCF93DF9388
:1057600090E0FC01EF52F04B24918557904BFC01E7
:1057700084918823D1F090E0880F991FFC01E95AA9
:10578000F04BA591B491FC01EF58F04BC591D49129
:1057900061110EC09FB7F8948C91E22FE0958E2393
:1057A0008C932881E223E8839FBFDF91CF910895F6
:1057B0008FB7F894EC91E22BEC938FBFF6CF3FB705
:1057C000F8948091670490916804A0916904B09165
:1057D0006A0426B5A89B05C02F3F19F00196A11DAC
:1057E000B11D3FBFBA2FA92F982F8827BC01CD012B
:1057F000620F711D811D911D42E0660F771F881F8A
:10580000991F4A95D1F708958F929F92AF92BF92B8
:10581000CF92DF92EF92FF924B015C01D0DF6B01E0
:105820007C01CDDF6C197D098E099F09683E7340AC
:1058300081059105B0F321E0821A9108A108B10811
:1058400088EEC80E83E0D81EE11CF11C811491047F
:10585000A104B10431F7FF90EF90DF90CF90BF909B
:10586000AF909F908F9008952FB7F8946091630444
:105870007091640480916504909166042FBF08952F
:1058800008959091000289130DC0E6E5FFE4E491CC
:105890009FEF90930002E230D9F030F4EE2379F0DC
:1058A000E13081F060E02DCFE43049F110F1E530D6
:1058B000C9F7909173009D7F90937300F3CF10927E
:1058C0006E00F0CF90916F009D7F90936F00EACFB4
:1058D000909170009D7F9093700091E09093B00044
:1058E0009091B100987F94609093B1001092B300B2
:1058F000D9CF909171009D7F90937100D3CF9091FB
:1059000072009D7F90937200CDCFDC01ED91FC91F0
:105910000190F081E02D1994AF92BF92CF92DF9267
:10592000EF92FF920F931F93CF93DF936C017B0154
:105930008B01040F151FEB015E01AE18BF08C017E5
:10594000D10759F06991D601ED91FC910190F08158
:10595000E02DC6011995892B79F7C501DF91CF910B
:105960001F910F91FF90EF90DF90CF90BF90AF907D
:105970000895FC01538D448D252F30E0842F90E055
:10598000821B930B541710F0CF960895019708953A
:10599000FC01918D828D981761F0A28DAE0FBF2F03
:1059A000B11D5D968C91928D9F5F9F73928F90E059
:1059B00008958FEF9FEF0895FC01918D828D9817C8
:1059C00031F0828DE80FF11D858D90E008958FEF05
:1059D0009FEF0895FC01918D228D892F90E0805CCE
:1059E0009F4F821B91098F739927089583EE98E04A
:1059F000F1DF21E0892B09F420E0822F0895FC01DA
:105A0000A48DA80FB92FB11DA35ABF4F2C91848D1F
:105A100090E001968F739927848FA689B7892C937C
:105A2000A089B1898C91837080648C93938D848DCF
:105A3000981306C00288F389E02D80818F7D8083D2
:105A40000895EF92FF920F931F93CF93DF93EC0192
:105A500081E0888F9B8D8C8D98131AC0E889F98915
:105A6000808185FF15C09FB7F894EE89FF89608318
:105A7000E889F98980818370806480839FBF81E099
:105A800090E0DF91CF911F910F91FF90EF900895DB
:105A9000F62E0B8D10E00F5F1F4F0F731127E02EB6
:105AA0008C8D8E110BC00FB607FCFACFE889F989EF
:105AB000808185FFF5CFCE01A2DFF2CFEB8DEC0F19
:105AC000FD2FF11DE35AFF4FF0829FB7F8940B8F23
:105AD000EA89FB8980818062D0CFCF93DF93EC018C
